{
  "_format": "hh-sol-artifact-1",
  "contractName": "GPTMembership",
  "sourceName": "contracts/GPTMembership.sol",
  "abi": [
    {
      "inputs": [
        {
          "internalType": "string",
          "name": "_name",
          "type": "string"
        },
        {
          "internalType": "string",
          "name": "_symbol",
          "type": "string"
        }
      ],
      "stateMutability": "nonpayable",
      "type": "constructor"
    },
    {
      "anonymous": false,
      "inputs": [
        {
          "indexed": true,
          "internalType": "address",
          "name": "owner",
          "type": "address"
        },
        {
          "indexed": true,
          "internalType": "address",
          "name": "approved",
          "type": "address"
        },
        {
          "indexed": true,
          "internalType": "uint256",
          "name": "tokenId",
          "type": "uint256"
        }
      ],
      "name": "Approval",
      "type": "event"
    },
    {
      "anonymous": false,
      "inputs": [
        {
          "indexed": true,
          "internalType": "address",
          "name": "owner",
          "type": "address"
        },
        {
          "indexed": true,
          "internalType": "address",
          "name": "operator",
          "type": "address"
        },
        {
          "indexed": false,
          "internalType": "bool",
          "name": "approved",
          "type": "bool"
        }
      ],
      "name": "ApprovalForAll",
      "type": "event"
    },
    {
      "anonymous": false,
      "inputs": [
        {
          "indexed": true,
          "internalType": "address",
          "name": "from",
          "type": "address"
        },
        {
          "indexed": true,
          "internalType": "address",
          "name": "to",
          "type": "address"
        },
        {
          "indexed": true,
          "internalType": "uint256",
          "name": "tokenId",
          "type": "uint256"
        }
      ],
      "name": "Transfer",
      "type": "event"
    },
    {
      "inputs": [
        {
          "internalType": "address",
          "name": "to",
          "type": "address"
        },
        {
          "internalType": "uint256",
          "name": "tokenId",
          "type": "uint256"
        }
      ],
      "name": "approve",
      "outputs": [],
      "stateMutability": "nonpayable",
      "type": "function"
    },
    {
      "inputs": [
        {
          "internalType": "address",
          "name": "owner",
          "type": "address"
        }
      ],
      "name": "balanceOf",
      "outputs": [
        {
          "internalType": "uint256",
          "name": "",
          "type": "uint256"
        }
      ],
      "stateMutability": "view",
      "type": "function"
    },
    {
      "inputs": [
        {
          "internalType": "uint256",
          "name": "tokenId",
          "type": "uint256"
        }
      ],
      "name": "getApproved",
      "outputs": [
        {
          "internalType": "address",
          "name": "",
          "type": "address"
        }
      ],
      "stateMutability": "view",
      "type": "function"
    },
    {
      "inputs": [
        {
          "internalType": "uint256",
          "name": "_membershipId",
          "type": "uint256"
        }
      ],
      "name": "getMemberships",
      "outputs": [
        {
          "components": [
            {
              "internalType": "uint256",
              "name": "id",
              "type": "uint256"
            },
            {
              "internalType": "string",
              "name": "name",
              "type": "string"
            },
            {
              "internalType": "uint256",
              "name": "cost",
              "type": "uint256"
            },
            {
              "internalType": "string",
              "name": "date",
              "type": "string"
            }
          ],
          "internalType": "struct GPTMembership.Membership",
          "name": "",
          "type": "tuple"
        }
      ],
      "stateMutability": "view",
      "type": "function"
    },
    {
      "inputs": [
        {
          "internalType": "uint256",
          "name": "_membershipId",
          "type": "uint256"
        }
      ],
      "name": "getMembershipsTaken",
      "outputs": [
        {
          "internalType": "uint256[]",
          "name": "",
          "type": "uint256[]"
        }
      ],
      "stateMutability": "view",
      "type": "function"
    },
    {
      "inputs": [
        {
          "internalType": "address",
          "name": "_address",
          "type": "address"
        }
      ],
      "name": "getUserMembership",
      "outputs": [
        {
          "components": [
            {
              "internalType": "uint256",
              "name": "userId",
              "type": "uint256"
            },
            {
              "internalType": "uint256",
              "name": "userMembershipId",
              "type": "uint256"
            },
            {
              "internalType": "address",
              "name": "userAddress",
              "type": "address"
            },
            {
              "internalType": "uint256",
              "name": "cost",
              "type": "uint256"
            },
            {
              "internalType": "string",
              "name": "userMemebershipExpiryDate",
              "type": "string"
            }
          ],
          "internalType": "struct GPTMembership.UserMembership",
          "name": "",
          "type": "tuple"
        }
      ],
      "stateMutability": "view",
      "type": "function"
    },
    {
      "inputs": [
        {
          "internalType": "uint256",
          "name": "",
          "type": "uint256"
        },
        {
          "internalType": "address",
          "name": "",
          "type": "address"
        }
      ],
      "name": "hasBought",
      "outputs": [
        {
          "internalType": "bool",
          "name": "",
          "type": "bool"
        }
      ],
      "stateMutability": "view",
      "type": "function"
    },
    {
      "inputs": [
        {
          "internalType": "address",
          "name": "owner",
          "type": "address"
        },
        {
          "internalType": "address",
          "name": "operator",
          "type": "address"
        }
      ],
      "name": "isApprovedForAll",
      "outputs": [
        {
          "internalType": "bool",
          "name": "",
          "type": "bool"
        }
      ],
      "stateMutability": "view",
      "type": "function"
    },
    {
      "inputs": [
        {
          "internalType": "string",
          "name": "_name",
          "type": "string"
        },
        {
          "internalType": "uint256",
          "name": "_cost",
          "type": "uint256"
        },
        {
          "internalType": "string",
          "name": "_date",
          "type": "string"
        }
      ],
      "name": "listOfMembership",
      "outputs": [],
      "stateMutability": "nonpayable",
      "type": "function"
    },
    {
      "inputs": [],
      "name": "membershipTypes",
      "outputs": [
        {
          "internalType": "uint256",
          "name": "",
          "type": "uint256"
        }
      ],
      "stateMutability": "view",
      "type": "function"
    },
    {
      "inputs": [
        {
          "internalType": "uint256",
          "name": "_membershipId",
          "type": "uint256"
        },
        {
          "internalType": "address",
          "name": "_user",
          "type": "address"
        },
        {
          "internalType": "string",
          "name": "_expiredDate",
          "type": "string"
        }
      ],
      "name": "mint",
      "outputs": [],
      "stateMutability": "payable",
      "type": "function"
    },
    {
      "inputs": [],
      "name": "name",
      "outputs": [
        {
          "internalType": "string",
          "name": "",
          "type": "string"
        }
      ],
      "stateMutability": "view",
      "type": "function"
    },
    {
      "inputs": [],
      "name": "owner",
      "outputs": [
        {
          "internalType": "address",
          "name": "",
          "type": "address"
        }
      ],
      "stateMutability": "view",
      "type": "function"
    },
    {
      "inputs": [
        {
          "internalType": "uint256",
          "name": "tokenId",
          "type": "uint256"
        }
      ],
      "name": "ownerOf",
      "outputs": [
        {
          "internalType": "address",
          "name": "",
          "type": "address"
        }
      ],
      "stateMutability": "view",
      "type": "function"
    },
    {
      "inputs": [
        {
          "internalType": "address",
          "name": "from",
          "type": "address"
        },
        {
          "internalType": "address",
          "name": "to",
          "type": "address"
        },
        {
          "internalType": "uint256",
          "name": "tokenId",
          "type": "uint256"
        }
      ],
      "name": "safeTransferFrom",
      "outputs": [],
      "stateMutability": "nonpayable",
      "type": "function"
    },
    {
      "inputs": [
        {
          "internalType": "address",
          "name": "from",
          "type": "address"
        },
        {
          "internalType": "address",
          "name": "to",
          "type": "address"
        },
        {
          "internalType": "uint256",
          "name": "tokenId",
          "type": "uint256"
        },
        {
          "internalType": "bytes",
          "name": "data",
          "type": "bytes"
        }
      ],
      "name": "safeTransferFrom",
      "outputs": [],
      "stateMutability": "nonpayable",
      "type": "function"
    },
    {
      "inputs": [
        {
          "internalType": "address",
          "name": "operator",
          "type": "address"
        },
        {
          "internalType": "bool",
          "name": "approved",
          "type": "bool"
        }
      ],
      "name": "setApprovalForAll",
      "outputs": [],
      "stateMutability": "nonpayable",
      "type": "function"
    },
    {
      "inputs": [
        {
          "internalType": "bytes4",
          "name": "interfaceId",
          "type": "bytes4"
        }
      ],
      "name": "supportsInterface",
      "outputs": [
        {
          "internalType": "bool",
          "name": "",
          "type": "bool"
        }
      ],
      "stateMutability": "view",
      "type": "function"
    },
    {
      "inputs": [],
      "name": "symbol",
      "outputs": [
        {
          "internalType": "string",
          "name": "",
          "type": "string"
        }
      ],
      "stateMutability": "view",
      "type": "function"
    },
    {
      "inputs": [
        {
          "internalType": "uint256",
          "name": "tokenId",
          "type": "uint256"
        }
      ],
      "name": "tokenURI",
      "outputs": [
        {
          "internalType": "string",
          "name": "",
          "type": "string"
        }
      ],
      "stateMutability": "view",
      "type": "function"
    },
    {
      "inputs": [],
      "name": "totalMemberships",
      "outputs": [
        {
          "internalType": "uint256",
          "name": "",
          "type": "uint256"
        }
      ],
      "stateMutability": "view",
      "type": "function"
    },
    {
      "inputs": [
        {
          "internalType": "address",
          "name": "from",
          "type": "address"
        },
        {
          "internalType": "address",
          "name": "to",
          "type": "address"
        },
        {
          "internalType": "uint256",
          "name": "tokenId",
          "type": "uint256"
        }
      ],
      "name": "transferFrom",
      "outputs": [],
      "stateMutability": "nonpayable",
      "type": "function"
    },
    {
      "inputs": [],
      "name": "withdraw",
      "outputs": [],
      "stateMutability": "nonpayable",
      "type": "function"
    }
  ],
  "bytecode": "0x60806040523480156200001157600080fd5b5060405162003ef638038062003ef683398181016040528101906200003791906200023b565b818181600090816200004a91906200050b565b5080600190816200005c91906200050b565b50505033600660006101000a81548173ffffffffffffffffffffffffffffffffffffffff021916908373ffffffffffffffffffffffffffffffffffffffff1602179055505050620005f2565b6000604051905090565b600080fd5b600080fd5b600080fd5b600080fd5b6000601f19601f8301169050919050565b7f4e487b7100000000000000000000000000000000000000000000000000000000600052604160045260246000fd5b6200011182620000c6565b810181811067ffffffffffffffff82111715620001335762000132620000d7565b5b80604052505050565b600062000148620000a8565b905062000156828262000106565b919050565b600067ffffffffffffffff821115620001795762000178620000d7565b5b6200018482620000c6565b9050602081019050919050565b60005b83811015620001b157808201518184015260208101905062000194565b60008484015250505050565b6000620001d4620001ce846200015b565b6200013c565b905082815260208101848484011115620001f357620001f2620000c1565b5b6200020084828562000191565b509392505050565b600082601f83011262000220576200021f620000bc565b5b815162000232848260208601620001bd565b91505092915050565b60008060408385031215620002555762000254620000b2565b5b600083015167ffffffffffffffff811115620002765762000275620000b7565b5b620002848582860162000208565b925050602083015167ffffffffffffffff811115620002a857620002a7620000b7565b5b620002b68582860162000208565b9150509250929050565b600081519050919050565b7f4e487b7100000000000000000000000000000000000000000000000000000000600052602260045260246000fd5b600060028204905060018216806200031357607f821691505b602082108103620003295762000328620002cb565b5b50919050565b60008190508160005260206000209050919050565b60006020601f8301049050919050565b600082821b905092915050565b600060088302620003937fffffffffffffffffffffffffffffffffffffffffffffffffffffffffffffffff8262000354565b6200039f868362000354565b95508019841693508086168417925050509392505050565b6000819050919050565b6000819050919050565b6000620003ec620003e6620003e084620003b7565b620003c1565b620003b7565b9050919050565b6000819050919050565b6200040883620003cb565b620004206200041782620003f3565b84845462000361565b825550505050565b600090565b6200043762000428565b62000444818484620003fd565b505050565b5b818110156200046c57620004606000826200042d565b6001810190506200044a565b5050565b601f821115620004bb5762000485816200032f565b620004908462000344565b81016020851015620004a0578190505b620004b8620004af8562000344565b83018262000449565b50505b505050565b600082821c905092915050565b6000620004e060001984600802620004c0565b1980831691505092915050565b6000620004fb8383620004cd565b9150826002028217905092915050565b6200051682620002c0565b67ffffffffffffffff811115620005325762000531620000d7565b5b6200053e8254620002fa565b6200054b82828562000470565b600060209050601f8311600181146200058357600084156200056e578287015190505b6200057a8582620004ed565b865550620005ea565b601f19841662000593866200032f565b60005b82811015620005bd5784890151825560018201915060208501945060208101905062000596565b86831015620005dd5784890151620005d9601f891682620004cd565b8355505b6001600288020188555050505b505050505050565b6138f480620006026000396000f3fe6080604052600436106101405760003560e01c80638da5cb5b116100b6578063b88d4fde1161006f578063b88d4fde14610482578063c87b56dd146104ab578063cdc461ad146104e8578063e67e402c14610525578063e985e9c514610541578063f43486271461057e57610140565b80638da5cb5b146103705780639485cfed1461039b57806395d89b41146103c65780639bb11c42146103f15780639cb04aef1461041c578063a22cb4651461045957610140565b80633ccfd60b116101085780633ccfd60b1461023c5780633d07be7b1461025357806342842e0e14610290578063556697da146102b95780636352211e146102f657806370a082311461033357610140565b806301ffc9a71461014557806306fdde0314610182578063081812fc146101ad578063095ea7b3146101ea57806323b872dd14610213575b600080fd5b34801561015157600080fd5b5061016c6004803603810190610167919061237f565b6105a7565b60405161017991906123c7565b60405180910390f35b34801561018e57600080fd5b50610197610689565b6040516101a49190612472565b60405180910390f35b3480156101b957600080fd5b506101d460048036038101906101cf91906124ca565b61071b565b6040516101e19190612538565b60405180910390f35b3480156101f657600080fd5b50610211600480360381019061020c919061257f565b610761565b005b34801561021f57600080fd5b5061023a600480360381019061023591906125bf565b610878565b005b34801561024857600080fd5b506102516108d8565b005b34801561025f57600080fd5b5061027a60048036038101906102759190612612565b610a03565b604051610287919061271d565b60405180910390f35b34801561029c57600080fd5b506102b760048036038101906102b291906125bf565b610b62565b005b3480156102c557600080fd5b506102e060048036038101906102db91906124ca565b610b82565b6040516102ed91906127a9565b60405180910390f35b34801561030257600080fd5b5061031d600480360381019061031891906124ca565b610ce7565b60405161032a9190612538565b60405180910390f35b34801561033f57600080fd5b5061035a60048036038101906103559190612612565b610d6d565b60405161036791906127da565b60405180910390f35b34801561037c57600080fd5b50610385610e24565b6040516103929190612538565b60405180910390f35b3480156103a757600080fd5b506103b0610e4a565b6040516103bd91906127da565b60405180910390f35b3480156103d257600080fd5b506103db610e50565b6040516103e89190612472565b60405180910390f35b3480156103fd57600080fd5b50610406610ee2565b60405161041391906127da565b60405180910390f35b34801561042857600080fd5b50610443600480360381019061043e91906127f5565b610ee8565b60405161045091906123c7565b60405180910390f35b34801561046557600080fd5b50610480600480360381019061047b9190612861565b610f17565b005b34801561048e57600080fd5b506104a960048036038101906104a491906129d6565b610f2d565b005b3480156104b757600080fd5b506104d260048036038101906104cd91906124ca565b610f8f565b6040516104df9190612472565b60405180910390f35b3480156104f457600080fd5b5061050f600480360381019061050a91906124ca565b610ff7565b60405161051c9190612b08565b60405180910390f35b61053f600480360381019061053a9190612bcb565b611062565b005b34801561054d57600080fd5b5061056860048036038101906105639190612c3a565b61131c565b60405161057591906123c7565b60405180910390f35b34801561058a57600080fd5b506105a560048036038101906105a09190612c7a565b6113b0565b005b60007f80ac58cd000000000000000000000000000000000000000000000000000000007bffffffffffffffffffffffffffffffffffffffffffffffffffffffff1916827bffffffffffffffffffffffffffffffffffffffffffffffffffffffff1916148061067257507f5b5e139f000000000000000000000000000000000000000000000000000000007bffffffffffffffffffffffffffffffffffffffffffffffffffffffff1916827bffffffffffffffffffffffffffffffffffffffffffffffffffffffff1916145b806106825750610681826114d8565b5b9050919050565b60606000805461069890612d34565b80601f01602080910402602001604051908101604052809291908181526020018280546106c490612d34565b80156107115780601f106106e657610100808354040283529160200191610711565b820191906000526020600020905b8154815290600101906020018083116106f457829003601f168201915b5050505050905090565b600061072682611542565b6004600083815260200190815260200160002060009054906101000a900473ffffffffffffffffffffffffffffffffffffffff169050919050565b600061076c82610ce7565b90508073ffffffffffffffffffffffffffffffffffffffff168373ffffffffffffffffffffffffffffffffffffffff16036107dc576040517f08c379a00000000000000000000000000000000000000000000000000000000081526004016107d390612dd7565b60405180910390fd5b8073ffffffffffffffffffffffffffffffffffffffff166107fb61158d565b73ffffffffffffffffffffffffffffffffffffffff16148061082a57506108298161082461158d565b61131c565b5b610869576040517f08c379a000000000000000000000000000000000000000000000000000000000815260040161086090612e69565b60405180910390fd5b6108738383611595565b505050565b61088961088361158d565b8261164e565b6108c8576040517f08c379a00000000000000000000000000000000000000000000000000000000081526004016108bf90612efb565b60405180910390fd5b6108d38383836116e3565b505050565b600660009054906101000a900473ffffffffffffffffffffffffffffffffffffffff1673ffffffffffffffffffffffffffffffffffffffff163373ffffffffffffffffffffffffffffffffffffffff1614610968576040517f08c379a000000000000000000000000000000000000000000000000000000000815260040161095f90612f8d565b60405180910390fd5b6000600660009054906101000a900473ffffffffffffffffffffffffffffffffffffffff1673ffffffffffffffffffffffffffffffffffffffff16476040516109b090612fde565b60006040518083038185875af1925050503d80600081146109ed576040519150601f19603f3d011682016040523d82523d6000602084013e6109f2565b606091505b5050905080610a0057600080fd5b50565b610a0b6122a6565b600960008373ffffffffffffffffffffffffffffffffffffffff1673ffffffffffffffffffffffffffffffffffffffff1681526020019081526020016000206040518060a001604052908160008201548152602001600182015481526020016002820160009054906101000a900473ffffffffffffffffffffffffffffffffffffffff1673ffffffffffffffffffffffffffffffffffffffff1673ffffffffffffffffffffffffffffffffffffffff16815260200160038201548152602001600482018054610ad990612d34565b80601f0160208091040260200160405190810160405280929190818152602001828054610b0590612d34565b8015610b525780601f10610b2757610100808354040283529160200191610b52565b820191906000526020600020905b815481529060010190602001808311610b3557829003601f168201915b5050505050815250509050919050565b610b7d83838360405180602001604052806000815250610f2d565b505050565b610b8a6122eb565b600a600083815260200190815260200160002060405180608001604052908160008201548152602001600182018054610bc290612d34565b80601f0160208091040260200160405190810160405280929190818152602001828054610bee90612d34565b8015610c3b5780601f10610c1057610100808354040283529160200191610c3b565b820191906000526020600020905b815481529060010190602001808311610c1e57829003601f168201915b5050505050815260200160028201548152602001600382018054610c5e90612d34565b80601f0160208091040260200160405190810160405280929190818152602001828054610c8a90612d34565b8015610cd75780601f10610cac57610100808354040283529160200191610cd7565b820191906000526020600020905b815481529060010190602001808311610cba57829003601f168201915b5050505050815250509050919050565b600080610cf3836119dc565b9050600073ffffffffffffffffffffffffffffffffffffffff168173ffffffffffffffffffffffffffffffffffffffff1603610d64576040517f08c379a0000000000000000000000000000000000000000000000000000000008152600401610d5b9061303f565b60405180910390fd5b80915050919050565b60008073ffffffffffffffffffffffffffffffffffffffff168273ffffffffffffffffffffffffffffffffffffffff1603610ddd576040517f08c379a0000000000000000000000000000000000000000000000000000000008152600401610dd4906130d1565b60405180910390fd5b600360008373ffffffffffffffffffffffffffffffffffffffff1673ffffffffffffffffffffffffffffffffffffffff168152602001908152602001600020549050919050565b600660009054906101000a900473ffffffffffffffffffffffffffffffffffffffff1681565b60075481565b606060018054610e5f90612d34565b80601f0160208091040260200160405190810160405280929190818152602001828054610e8b90612d34565b8015610ed85780601f10610ead57610100808354040283529160200191610ed8565b820191906000526020600020905b815481529060010190602001808311610ebb57829003601f168201915b5050505050905090565b60085481565b600b6020528160005260406000206020528060005260406000206000915091509054906101000a900460ff1681565b610f29610f2261158d565b8383611a19565b5050565b610f3e610f3861158d565b8361164e565b610f7d576040517f08c379a0000000000000000000000000000000000000000000000000000000008152600401610f7490612efb565b60405180910390fd5b610f8984848484611b85565b50505050565b6060610f9a82611542565b6000610fa4611be1565b90506000815111610fc45760405180602001604052806000815250610fef565b80610fce84611bf8565b604051602001610fdf92919061312d565b6040516020818303038152906040525b915050919050565b6060600d600083815260200190815260200160002080548060200260200160405190810160405280929190818152602001828054801561105657602002820191906000526020600020905b815481526020019060010190808311611042575b50505050509050919050565b6000830361106f57600080fd5b60075483111561107e57600080fd5b600a6000848152602001908152602001600020600201543410156110d7576040517f08c379a00000000000000000000000000000000000000000000000000000000081526004016110ce9061319d565b60405180910390fd5b600860008154809291906110ea906131ec565b91905055506040518060a0016040528060085481526020018481526020018373ffffffffffffffffffffffffffffffffffffffff168152602001600a600086815260200190815260200160002060020154815260200182815250600960008473ffffffffffffffffffffffffffffffffffffffff1673ffffffffffffffffffffffffffffffffffffffff168152602001908152602001600020600082015181600001556020820151816001015560408201518160020160006101000a81548173ffffffffffffffffffffffffffffffffffffffff021916908373ffffffffffffffffffffffffffffffffffffffff1602179055506060820151816003015560808201518160040190816111fd91906133e0565b509050506001600b600085815260200190815260200160002060003373ffffffffffffffffffffffffffffffffffffffff1673ffffffffffffffffffffffffffffffffffffffff16815260200190815260200160002060006101000a81548160ff02191690831515021790555033600c60008581526020019081526020016000206000600854815260200190815260200160002060006101000a81548173ffffffffffffffffffffffffffffffffffffffff021916908373ffffffffffffffffffffffffffffffffffffffff160217905550600d6000848152602001908152602001600020600854908060018154018082558091505060019003906000526020600020016000909190919091505561131733600854611cc6565b505050565b6000600560008473ffffffffffffffffffffffffffffffffffffffff1673ffffffffffffffffffffffffffffffffffffffff16815260200190815260200160002060008373ffffffffffffffffffffffffffffffffffffffff1673ffffffffffffffffffffffffffffffffffffffff16815260200190815260200160002060009054906101000a900460ff16905092915050565b600660009054906101000a900473ffffffffffffffffffffffffffffffffffffffff1673ffffffffffffffffffffffffffffffffffffffff163373ffffffffffffffffffffffffffffffffffffffff1614611440576040517f08c379a000000000000000000000000000000000000000000000000000000000815260040161143790612f8d565b60405180910390fd5b60076000815480929190611453906131ec565b91905055506040518060800160405280600754815260200184815260200183815260200182815250600a600060075481526020019081526020016000206000820151816000015560208201518160010190816114af91906133e0565b506040820151816002015560608201518160030190816114cf91906133e0565b50905050505050565b60007f01ffc9a7000000000000000000000000000000000000000000000000000000007bffffffffffffffffffffffffffffffffffffffffffffffffffffffff1916827bffffffffffffffffffffffffffffffffffffffffffffffffffffffff1916149050919050565b61154b81611ce4565b61158a576040517f08c379a00000000000000000000000000000000000000000000000000000000081526004016115819061303f565b60405180910390fd5b50565b600033905090565b816004600083815260200190815260200160002060006101000a81548173ffffffffffffffffffffffffffffffffffffffff021916908373ffffffffffffffffffffffffffffffffffffffff160217905550808273ffffffffffffffffffffffffffffffffffffffff1661160883610ce7565b73ffffffffffffffffffffffffffffffffffffffff167f8c5be1e5ebec7d5bd14f71427d1e84f3dd0314c0f7b2291e5b200ac8c7c3b92560405160405180910390a45050565b60008061165a83610ce7565b90508073ffffffffffffffffffffffffffffffffffffffff168473ffffffffffffffffffffffffffffffffffffffff16148061169c575061169b818561131c565b5b806116da57508373ffffffffffffffffffffffffffffffffffffffff166116c28461071b565b73ffffffffffffffffffffffffffffffffffffffff16145b91505092915050565b8273ffffffffffffffffffffffffffffffffffffffff1661170382610ce7565b73ffffffffffffffffffffffffffffffffffffffff1614611759576040517f08c379a000000000000000000000000000000000000000000000000000000000815260040161175090613524565b60405180910390fd5b600073ffffffffffffffffffffffffffffffffffffffff168273ffffffffffffffffffffffffffffffffffffffff16036117c8576040517f08c379a00000000000000000000000000000000000000000000000000000000081526004016117bf906135b6565b60405180910390fd5b6117d58383836001611d25565b8273ffffffffffffffffffffffffffffffffffffffff166117f582610ce7565b73ffffffffffffffffffffffffffffffffffffffff161461184b576040517f08c379a000000000000000000000000000000000000000000000000000000000815260040161184290613524565b60405180910390fd5b6004600082815260200190815260200160002060006101000a81549073ffffffffffffffffffffffffffffffffffffffff02191690556001600360008573ffffffffffffffffffffffffffffffffffffffff1673ffffffffffffffffffffffffffffffffffffffff168152602001908152602001600020600082825403925050819055506001600360008473ffffffffffffffffffffffffffffffffffffffff1673ffffffffffffffffffffffffffffffffffffffff16815260200190815260200160002060008282540192505081905550816002600083815260200190815260200160002060006101000a81548173ffffffffffffffffffffffffffffffffffffffff021916908373ffffffffffffffffffffffffffffffffffffffff160217905550808273ffffffffffffffffffffffffffffffffffffffff168473ffffffffffffffffffffffffffffffffffffffff167fddf252ad1be2c89b69c2b068fc378daa952ba7f163c4a11628f55a4df523b3ef60405160405180910390a46119d78383836001611d2b565b505050565b60006002600083815260200190815260200160002060009054906101000a900473ffffffffffffffffffffffffffffffffffffffff169050919050565b8173ffffffffffffffffffffffffffffffffffffffff168373ffffffffffffffffffffffffffffffffffffffff1603611a87576040517f08c379a0000000000000000000000000000000000000000000000000000000008152600401611a7e90613622565b60405180910390fd5b80600560008573ffffffffffffffffffffffffffffffffffffffff1673ffffffffffffffffffffffffffffffffffffffff16815260200190815260200160002060008473ffffffffffffffffffffffffffffffffffffffff1673ffffffffffffffffffffffffffffffffffffffff16815260200190815260200160002060006101000a81548160ff0219169083151502179055508173ffffffffffffffffffffffffffffffffffffffff168373ffffffffffffffffffffffffffffffffffffffff167f17307eab39ab6107e8899845ad3d59bd9653f200f220920489ca2b5937696c3183604051611b7891906123c7565b60405180910390a3505050565b611b908484846116e3565b611b9c84848484611d31565b611bdb576040517f08c379a0000000000000000000000000000000000000000000000000000000008152600401611bd2906136b4565b60405180910390fd5b50505050565b606060405180602001604052806000815250905090565b606060006001611c0784611eb8565b01905060008167ffffffffffffffff811115611c2657611c256128ab565b5b6040519080825280601f01601f191660200182016040528015611c585781602001600182028036833780820191505090505b509050600082602001820190505b600115611cbb578080600190039150507f3031323334353637383961626364656600000000000000000000000000000000600a86061a8153600a8581611caf57611cae6136d4565b5b04945060008503611c66575b819350505050919050565b611ce082826040518060200160405280600081525061200b565b5050565b60008073ffffffffffffffffffffffffffffffffffffffff16611d06836119dc565b73ffffffffffffffffffffffffffffffffffffffff1614159050919050565b50505050565b50505050565b6000611d528473ffffffffffffffffffffffffffffffffffffffff16612066565b15611eab578373ffffffffffffffffffffffffffffffffffffffff1663150b7a02611d7b61158d565b8786866040518563ffffffff1660e01b8152600401611d9d9493929190613758565b6020604051808303816000875af1925050508015611dd957506040513d601f19601f82011682018060405250810190611dd691906137b9565b60015b611e5b573d8060008114611e09576040519150601f19603f3d011682016040523d82523d6000602084013e611e0e565b606091505b506000815103611e53576040517f08c379a0000000000000000000000000000000000000000000000000000000008152600401611e4a906136b4565b60405180910390fd5b805181602001fd5b63150b7a0260e01b7bffffffffffffffffffffffffffffffffffffffffffffffffffffffff1916817bffffffffffffffffffffffffffffffffffffffffffffffffffffffff191614915050611eb0565b600190505b949350505050565b600080600090507a184f03e93ff9f4daa797ed6e38ed64bf6a1f0100000000000000008310611f16577a184f03e93ff9f4daa797ed6e38ed64bf6a1f0100000000000000008381611f0c57611f0b6136d4565b5b0492506040810190505b6d04ee2d6d415b85acef81000000008310611f53576d04ee2d6d415b85acef81000000008381611f4957611f486136d4565b5b0492506020810190505b662386f26fc100008310611f8257662386f26fc100008381611f7857611f776136d4565b5b0492506010810190505b6305f5e1008310611fab576305f5e1008381611fa157611fa06136d4565b5b0492506008810190505b6127108310611fd0576127108381611fc657611fc56136d4565b5b0492506004810190505b60648310611ff35760648381611fe957611fe86136d4565b5b0492506002810190505b600a8310612002576001810190505b80915050919050565b6120158383612089565b6120226000848484611d31565b612061576040517f08c379a0000000000000000000000000000000000000000000000000000000008152600401612058906136b4565b60405180910390fd5b505050565b6000808273ffffffffffffffffffffffffffffffffffffffff163b119050919050565b600073ffffffffffffffffffffffffffffffffffffffff168273ffffffffffffffffffffffffffffffffffffffff16036120f8576040517f08c379a00000000000000000000000000000000000000000000000000000000081526004016120ef90613832565b60405180910390fd5b61210181611ce4565b15612141576040517f08c379a00000000000000000000000000000000000000000000000000000000081526004016121389061389e565b60405180910390fd5b61214f600083836001611d25565b61215881611ce4565b15612198576040517f08c379a000000000000000000000000000000000000000000000000000000000815260040161218f9061389e565b60405180910390fd5b6001600360008473ffffffffffffffffffffffffffffffffffffffff1673ffffffffffffffffffffffffffffffffffffffff16815260200190815260200160002060008282540192505081905550816002600083815260200190815260200160002060006101000a81548173ffffffffffffffffffffffffffffffffffffffff021916908373ffffffffffffffffffffffffffffffffffffffff160217905550808273ffffffffffffffffffffffffffffffffffffffff16600073ffffffffffffffffffffffffffffffffffffffff167fddf252ad1be2c89b69c2b068fc378daa952ba7f163c4a11628f55a4df523b3ef60405160405180910390a46122a2600083836001611d2b565b5050565b6040518060a001604052806000815260200160008152602001600073ffffffffffffffffffffffffffffffffffffffff16815260200160008152602001606081525090565b6040518060800160405280600081526020016060815260200160008152602001606081525090565b6000604051905090565b600080fd5b600080fd5b60007fffffffff0000000000000000000000000000000000000000000000000000000082169050919050565b61235c81612327565b811461236757600080fd5b50565b60008135905061237981612353565b92915050565b6000602082840312156123955761239461231d565b5b60006123a38482850161236a565b91505092915050565b60008115159050919050565b6123c1816123ac565b82525050565b60006020820190506123dc60008301846123b8565b92915050565b600081519050919050565b600082825260208201905092915050565b60005b8381101561241c578082015181840152602081019050612401565b60008484015250505050565b6000601f19601f8301169050919050565b6000612444826123e2565b61244e81856123ed565b935061245e8185602086016123fe565b61246781612428565b840191505092915050565b6000602082019050818103600083015261248c8184612439565b905092915050565b6000819050919050565b6124a781612494565b81146124b257600080fd5b50565b6000813590506124c48161249e565b92915050565b6000602082840312156124e0576124df61231d565b5b60006124ee848285016124b5565b91505092915050565b600073ffffffffffffffffffffffffffffffffffffffff82169050919050565b6000612522826124f7565b9050919050565b61253281612517565b82525050565b600060208201905061254d6000830184612529565b92915050565b61255c81612517565b811461256757600080fd5b50565b60008135905061257981612553565b92915050565b600080604083850312156125965761259561231d565b5b60006125a48582860161256a565b92505060206125b5858286016124b5565b9150509250929050565b6000806000606084860312156125d8576125d761231d565b5b60006125e68682870161256a565b93505060206125f78682870161256a565b9250506040612608868287016124b5565b9150509250925092565b6000602082840312156126285761262761231d565b5b60006126368482850161256a565b91505092915050565b61264881612494565b82525050565b61265781612517565b82525050565b600082825260208201905092915050565b6000612679826123e2565b612683818561265d565b93506126938185602086016123fe565b61269c81612428565b840191505092915050565b600060a0830160008301516126bf600086018261263f565b5060208301516126d2602086018261263f565b5060408301516126e5604086018261264e565b5060608301516126f8606086018261263f565b5060808301518482036080860152612710828261266e565b9150508091505092915050565b6000602082019050818103600083015261273781846126a7565b905092915050565b6000608083016000830151612757600086018261263f565b506020830151848203602086015261276f828261266e565b9150506040830151612784604086018261263f565b506060830151848203606086015261279c828261266e565b9150508091505092915050565b600060208201905081810360008301526127c3818461273f565b905092915050565b6127d481612494565b82525050565b60006020820190506127ef60008301846127cb565b92915050565b6000806040838503121561280c5761280b61231d565b5b600061281a858286016124b5565b925050602061282b8582860161256a565b9150509250929050565b61283e816123ac565b811461284957600080fd5b50565b60008135905061285b81612835565b92915050565b600080604083850312156128785761287761231d565b5b60006128868582860161256a565b92505060206128978582860161284c565b9150509250929050565b600080fd5b600080fd5b7f4e487b7100000000000000000000000000000000000000000000000000000000600052604160045260246000fd5b6128e382612428565b810181811067ffffffffffffffff82111715612902576129016128ab565b5b80604052505050565b6000612915612313565b905061292182826128da565b919050565b600067ffffffffffffffff821115612941576129406128ab565b5b61294a82612428565b9050602081019050919050565b82818337600083830152505050565b600061297961297484612926565b61290b565b905082815260208101848484011115612995576129946128a6565b5b6129a0848285612957565b509392505050565b600082601f8301126129bd576129bc6128a1565b5b81356129cd848260208601612966565b91505092915050565b600080600080608085870312156129f0576129ef61231d565b5b60006129fe8782880161256a565b9450506020612a0f8782880161256a565b9350506040612a20878288016124b5565b925050606085013567ffffffffffffffff811115612a4157612a40612322565b5b612a4d878288016129a8565b91505092959194509250565b600081519050919050565b600082825260208201905092915050565b6000819050602082019050919050565b6000612a91838361263f565b60208301905092915050565b6000602082019050919050565b6000612ab582612a59565b612abf8185612a64565b9350612aca83612a75565b8060005b83811015612afb578151612ae28882612a85565b9750612aed83612a9d565b925050600181019050612ace565b5085935050505092915050565b60006020820190508181036000830152612b228184612aaa565b905092915050565b600067ffffffffffffffff821115612b4557612b446128ab565b5b612b4e82612428565b9050602081019050919050565b6000612b6e612b6984612b2a565b61290b565b905082815260208101848484011115612b8a57612b896128a6565b5b612b95848285612957565b509392505050565b600082601f830112612bb257612bb16128a1565b5b8135612bc2848260208601612b5b565b91505092915050565b600080600060608486031215612be457612be361231d565b5b6000612bf2868287016124b5565b9350506020612c038682870161256a565b925050604084013567ffffffffffffffff811115612c2457612c23612322565b5b612c3086828701612b9d565b9150509250925092565b60008060408385031215612c5157612c5061231d565b5b6000612c5f8582860161256a565b9250506020612c708582860161256a565b9150509250929050565b600080600060608486031215612c9357612c9261231d565b5b600084013567ffffffffffffffff811115612cb157612cb0612322565b5b612cbd86828701612b9d565b9350506020612cce868287016124b5565b925050604084013567ffffffffffffffff811115612cef57612cee612322565b5b612cfb86828701612b9d565b9150509250925092565b7f4e487b7100000000000000000000000000000000000000000000000000000000600052602260045260246000fd5b60006002820490506001821680612d4c57607f821691505b602082108103612d5f57612d5e612d05565b5b50919050565b7f4552433732313a20617070726f76616c20746f2063757272656e74206f776e6560008201527f7200000000000000000000000000000000000000000000000000000000000000602082015250565b6000612dc16021836123ed565b9150612dcc82612d65565b604082019050919050565b60006020820190508181036000830152612df081612db4565b9050919050565b7f4552433732313a20617070726f76652063616c6c6572206973206e6f7420746f60008201527f6b656e206f776e6572206f7220617070726f76656420666f7220616c6c000000602082015250565b6000612e53603d836123ed565b9150612e5e82612df7565b604082019050919050565b60006020820190508181036000830152612e8281612e46565b9050919050565b7f4552433732313a2063616c6c6572206973206e6f7420746f6b656e206f776e6560008201527f72206f7220617070726f76656400000000000000000000000000000000000000602082015250565b6000612ee5602d836123ed565b9150612ef082612e89565b604082019050919050565b60006020820190508181036000830152612f1481612ed8565b9050919050565b7f4f6e6c79204f776e65722063616e2063616c6c20746869732066756e6374696f60008201527f6e00000000000000000000000000000000000000000000000000000000000000602082015250565b6000612f776021836123ed565b9150612f8282612f1b565b604082019050919050565b60006020820190508181036000830152612fa681612f6a565b9050919050565b600081905092915050565b50565b6000612fc8600083612fad565b9150612fd382612fb8565b600082019050919050565b6000612fe982612fbb565b9150819050919050565b7f4552433732313a20696e76616c696420746f6b656e2049440000000000000000600082015250565b60006130296018836123ed565b915061303482612ff3565b602082019050919050565b600060208201905081810360008301526130588161301c565b9050919050565b7f4552433732313a2061646472657373207a65726f206973206e6f74206120766160008201527f6c6964206f776e65720000000000000000000000000000000000000000000000602082015250565b60006130bb6029836123ed565b91506130c68261305f565b604082019050919050565b600060208201905081810360008301526130ea816130ae565b9050919050565b600081905092915050565b6000613107826123e2565b61311181856130f1565b93506131218185602086016123fe565b80840191505092915050565b600061313982856130fc565b915061314582846130fc565b91508190509392505050565b7f496e73756666696369656e742042616c616e6365212100000000000000000000600082015250565b60006131876016836123ed565b915061319282613151565b602082019050919050565b600060208201905081810360008301526131b68161317a565b9050919050565b7f4e487b7100000000000000000000000000000000000000000000000000000000600052601160045260246000fd5b60006131f782612494565b91507fffffffffffffffffffffffffffffffffffffffffffffffffffffffffffffffff8203613229576132286131bd565b5b600182019050919050565b60008190508160005260206000209050919050565b60006020601f8301049050919050565b600082821b905092915050565b6000600883026132967fffffffffffffffffffffffffffffffffffffffffffffffffffffffffffffffff82613259565b6132a08683613259565b95508019841693508086168417925050509392505050565b6000819050919050565b60006132dd6132d86132d384612494565b6132b8565b612494565b9050919050565b6000819050919050565b6132f7836132c2565b61330b613303826132e4565b848454613266565b825550505050565b600090565b613320613313565b61332b8184846132ee565b505050565b5b8181101561334f57613344600082613318565b600181019050613331565b5050565b601f8211156133945761336581613234565b61336e84613249565b8101602085101561337d578190505b61339161338985613249565b830182613330565b50505b505050565b600082821c905092915050565b60006133b760001984600802613399565b1980831691505092915050565b60006133d083836133a6565b9150826002028217905092915050565b6133e9826123e2565b67ffffffffffffffff811115613402576134016128ab565b5b61340c8254612d34565b613417828285613353565b600060209050601f83116001811461344a5760008415613438578287015190505b61344285826133c4565b8655506134aa565b601f19841661345886613234565b60005b828110156134805784890151825560018201915060208501945060208101905061345b565b8683101561349d5784890151613499601f8916826133a6565b8355505b6001600288020188555050505b505050505050565b7f4552433732313a207472616e736665722066726f6d20696e636f72726563742060008201527f6f776e6572000000000000000000000000000000000000000000000000000000602082015250565b600061350e6025836123ed565b9150613519826134b2565b604082019050919050565b6000602082019050818103600083015261353d81613501565b9050919050565b7f4552433732313a207472616e7366657220746f20746865207a65726f2061646460008201527f7265737300000000000000000000000000000000000000000000000000000000602082015250565b60006135a06024836123ed565b91506135ab82613544565b604082019050919050565b600060208201905081810360008301526135cf81613593565b9050919050565b7f4552433732313a20617070726f766520746f2063616c6c657200000000000000600082015250565b600061360c6019836123ed565b9150613617826135d6565b602082019050919050565b6000602082019050818103600083015261363b816135ff565b9050919050565b7f4552433732313a207472616e7366657220746f206e6f6e20455243373231526560008201527f63656976657220696d706c656d656e7465720000000000000000000000000000602082015250565b600061369e6032836123ed565b91506136a982613642565b604082019050919050565b600060208201905081810360008301526136cd81613691565b9050919050565b7f4e487b7100000000000000000000000000000000000000000000000000000000600052601260045260246000fd5b600081519050919050565b600082825260208201905092915050565b600061372a82613703565b613734818561370e565b93506137448185602086016123fe565b61374d81612428565b840191505092915050565b600060808201905061376d6000830187612529565b61377a6020830186612529565b61378760408301856127cb565b8181036060830152613799818461371f565b905095945050505050565b6000815190506137b381612353565b92915050565b6000602082840312156137cf576137ce61231d565b5b60006137dd848285016137a4565b91505092915050565b7f4552433732313a206d696e7420746f20746865207a65726f2061646472657373600082015250565b600061381c6020836123ed565b9150613827826137e6565b602082019050919050565b6000602082019050818103600083015261384b8161380f565b9050919050565b7f4552433732313a20746f6b656e20616c7265616479206d696e74656400000000600082015250565b6000613888601c836123ed565b915061389382613852565b602082019050919050565b600060208201905081810360008301526138b78161387b565b905091905056fea26469706673582212208b4a7a52a1a4b5ffd057594f6941f0ae042ab8359c553edf61dfd842e3d4a79264736f6c63430008110033",
  "linkReferences": {},
  "deployedLinkReferences": {}
}